{
  "_format": "hh-sol-artifact-1",
  "contractName": "MarketPlace",
  "sourceName": "contracts/MarketPlace.sol",
  "abi": [
    {
      "inputs": [],
      "stateMutability": "nonpayable",
      "type": "constructor"
    },
    {
      "anonymous": false,
      "inputs": [
        {
          "indexed": true,
          "internalType": "uint256",
          "name": "marketItemId",
          "type": "uint256"
        },
        {
          "indexed": false,
          "internalType": "address",
          "name": "lazyFactoryAddress",
          "type": "address"
        },
        {
          "indexed": true,
          "internalType": "uint256",
          "name": "tokenId",
          "type": "uint256"
        },
        {
          "indexed": false,
          "internalType": "address",
          "name": "seller",
          "type": "address"
        },
        {
          "indexed": false,
          "internalType": "address",
          "name": "owner",
          "type": "address"
        },
        {
          "indexed": true,
          "internalType": "uint256",
          "name": "price",
          "type": "uint256"
        },
        {
          "indexed": false,
          "internalType": "bool",
          "name": "sold",
          "type": "bool"
        }
      ],
      "name": "MarketItemCreated",
      "type": "event"
    },
    {
      "anonymous": false,
      "inputs": [
        {
          "indexed": true,
          "internalType": "uint256",
          "name": "marketItemId",
          "type": "uint256"
        },
        {
          "indexed": true,
          "internalType": "address",
          "name": "lazyFactoryAddress",
          "type": "address"
        },
        {
          "indexed": true,
          "internalType": "uint256",
          "name": "tokenId",
          "type": "uint256"
        },
        {
          "indexed": false,
          "internalType": "address",
          "name": "owner",
          "type": "address"
        },
        {
          "indexed": false,
          "internalType": "uint256",
          "name": "price",
          "type": "uint256"
        }
      ],
      "name": "MarketItemPurchased",
      "type": "event"
    },
    {
      "anonymous": false,
      "inputs": [
        {
          "indexed": false,
          "internalType": "string",
          "name": "",
          "type": "string"
        }
      ],
      "name": "fallingBack",
      "type": "event"
    },
    {
      "anonymous": false,
      "inputs": [
        {
          "indexed": false,
          "internalType": "address",
          "name": "",
          "type": "address"
        },
        {
          "indexed": false,
          "internalType": "uint256",
          "name": "",
          "type": "uint256"
        }
      ],
      "name": "received",
      "type": "event"
    },
    {
      "inputs": [
        {
          "internalType": "address",
          "name": "lazyFactoryAddress",
          "type": "address"
        },
        {
          "internalType": "uint256",
          "name": "tokenId",
          "type": "uint256"
        },
        {
          "internalType": "uint256",
          "name": "price",
          "type": "uint256"
        }
      ],
      "name": "createMarketSell",
      "outputs": [],
      "stateMutability": "payable",
      "type": "function"
    },
    {
      "inputs": [],
      "name": "fetchCurrentId",
      "outputs": [
        {
          "internalType": "uint256",
          "name": "",
          "type": "uint256"
        }
      ],
      "stateMutability": "view",
      "type": "function"
    },
    {
      "inputs": [],
      "name": "fetchMarketBalance",
      "outputs": [
        {
          "internalType": "uint256",
          "name": "",
          "type": "uint256"
        }
      ],
      "stateMutability": "view",
      "type": "function"
    },
    {
      "inputs": [],
      "name": "fetchMarketItems",
      "outputs": [
        {
          "components": [
            {
              "internalType": "uint256",
              "name": "marketItemId",
              "type": "uint256"
            },
            {
              "internalType": "address",
              "name": "lazyFactoryAddress",
              "type": "address"
            },
            {
              "internalType": "uint256",
              "name": "tokenId",
              "type": "uint256"
            },
            {
              "internalType": "address payable",
              "name": "seller",
              "type": "address"
            },
            {
              "internalType": "address payable",
              "name": "owner",
              "type": "address"
            },
            {
              "internalType": "uint256",
              "name": "price",
              "type": "uint256"
            },
            {
              "internalType": "bool",
              "name": "sold",
              "type": "bool"
            }
          ],
          "internalType": "struct MarketPlace.MarketItem[]",
          "name": "",
          "type": "tuple[]"
        }
      ],
      "stateMutability": "view",
      "type": "function"
    },
    {
      "inputs": [],
      "name": "fetchSoldId",
      "outputs": [
        {
          "internalType": "uint256",
          "name": "",
          "type": "uint256"
        }
      ],
      "stateMutability": "view",
      "type": "function"
    },
    {
      "inputs": [
        {
          "internalType": "address",
          "name": "lazyFactoryAddress",
          "type": "address"
        },
        {
          "internalType": "uint256",
          "name": "marketItemId",
          "type": "uint256"
        },
        {
          "internalType": "uint256",
          "name": "vadeeFee",
          "type": "uint256"
        }
      ],
      "name": "purchaseMarketItem",
      "outputs": [],
      "stateMutability": "payable",
      "type": "function"
    },
    {
      "inputs": [],
      "name": "withdraw",
      "outputs": [],
      "stateMutability": "nonpayable",
      "type": "function"
    },
    {
      "stateMutability": "payable",
      "type": "receive"
    }
  ],
  "bytecode": "0x608060405234801561001057600080fd5b50600160008190555033600860006101000a81548173ffffffffffffffffffffffffffffffffffffffff021916908373ffffffffffffffffffffffffffffffffffffffff160217905550611250806100696000396000f3fe6080604052600436106100745760003560e01c80637fe3b74c1161004e5780637fe3b74c146101265780639ec16e3914610151578063b42129d01461016d578063be034a7f14610189576100b4565b80630f08efe0146100b95780633061f651146100e45780633ccfd60b1461010f576100b4565b366100b4577ff11e547d796cc64acdf758e7cee90439494fd886a19159454aa61e473fdbafef33346040516100aa929190610ebc565b60405180910390a1005b600080fd5b3480156100c557600080fd5b506100ce6101b4565b6040516100db9190610ee5565b60405180910390f35b3480156100f057600080fd5b506100f9610418565b6040516101069190610f87565b60405180910390f35b34801561011b57600080fd5b50610124610420565b005b34801561013257600080fd5b5061013b610505565b6040516101489190610f87565b60405180910390f35b61016b60048036038101906101669190610bf8565b610516565b005b61018760048036038101906101829190610bf8565b6107fd565b005b34801561019557600080fd5b5061019e610b18565b6040516101ab9190610f87565b60405180910390f35b606060006101c26001610b29565b905060008167ffffffffffffffff811115610206577f4e487b7100000000000000000000000000000000000000000000000000000000600052604160045260246000fd5b60405190808252806020026020018201604052801561023f57816020015b61022c610b4d565b8152602001906001900390816102245790505b50905060005b8281101561040f576000600360006001846102609190610fec565b81526020019081526020016000209050806040518060e0016040529081600082015481526020016001820160009054906101000a900473ffffffffffffffffffffffffffffffffffffffff1673ffffffffffffffffffffffffffffffffffffffff1673ffffffffffffffffffffffffffffffffffffffff168152602001600282015481526020016003820160009054906101000a900473ffffffffffffffffffffffffffffffffffffffff1673ffffffffffffffffffffffffffffffffffffffff1673ffffffffffffffffffffffffffffffffffffffff1681526020016004820160009054906101000a900473ffffffffffffffffffffffffffffffffffffffff1673ffffffffffffffffffffffffffffffffffffffff1673ffffffffffffffffffffffffffffffffffffffff168152602001600582015481526020016006820160009054906101000a900460ff1615151515815250508383815181106103f0577f4e487b7100000000000000000000000000000000000000000000000000000000600052603260045260246000fd5b6020026020010181905250508080610407906110d0565b915050610245565b50809250505090565b600047905090565b600860009054906101000a900473ffffffffffffffffffffffffffffffffffffffff1673ffffffffffffffffffffffffffffffffffffffff163373ffffffffffffffffffffffffffffffffffffffff16146104b0576040517f08c379a00000000000000000000000000000000000000000000000000000000081526004016104a790610f27565b60405180910390fd5b600033905060004790508173ffffffffffffffffffffffffffffffffffffffff166108fc829081150290604051600060405180830381858888f19350505050158015610500573d6000803e3d6000fd5b505050565b60006105116001610b29565b905090565b6002600054141561055c576040517f08c379a000000000000000000000000000000000000000000000000000000000815260040161055390610f67565b60405180910390fd5b6002600081905550600081116105a7576040517f08c379a000000000000000000000000000000000000000000000000000000000815260040161059e90610f07565b60405180910390fd5b6105b16001610b37565b60006105bd6001610b29565b9050806003600083815260200190815260200160002060000181905550836003600083815260200190815260200160002060010160006101000a81548173ffffffffffffffffffffffffffffffffffffffff021916908373ffffffffffffffffffffffffffffffffffffffff160217905550826003600083815260200190815260200160002060020181905550816003600083815260200190815260200160002060050181905550336003600083815260200190815260200160002060030160006101000a81548173ffffffffffffffffffffffffffffffffffffffff021916908373ffffffffffffffffffffffffffffffffffffffff16021790555060006003600083815260200190815260200160002060040160006101000a81548173ffffffffffffffffffffffffffffffffffffffff021916908373ffffffffffffffffffffffffffffffffffffffff16021790555060006003600083815260200190815260200160002060060160006101000a81548160ff0219169083151502179055508373ffffffffffffffffffffffffffffffffffffffff166323b872dd3330866040518463ffffffff1660e01b815260040161077c93929190610e85565b600060405180830381600087803b15801561079657600080fd5b505af11580156107aa573d6000803e3d6000fd5b505050508183827f045dfa01dcba2b36aba1d3dc4a874f4b0c5d2fbeb8d2c4b34a7d88c8d8f929d187336000806040516107e79493929190610e40565b60405180910390a4506001600081905550505050565b60026000541415610843576040517f08c379a000000000000000000000000000000000000000000000000000000000815260040161083a90610f67565b60405180910390fd5b60026000819055506000600360008481526020019081526020016000206005015490508034146108a8576040517f08c379a000000000000000000000000000000000000000000000000000000000815260040161089f90610f47565b60405180910390fd5b60006003600085815260200190815260200160002060020154905060003490506003600086815260200190815260200160002060030160009054906101000a900473ffffffffffffffffffffffffffffffffffffffff1673ffffffffffffffffffffffffffffffffffffffff166108fc85836109249190611042565b9081150290604051600060405180830381858888f1935050505015801561094f573d6000803e3d6000fd5b508573ffffffffffffffffffffffffffffffffffffffff166323b872dd3033856040518463ffffffff1660e01b815260040161098d93929190610e85565b600060405180830381600087803b1580156109a757600080fd5b505af11580156109bb573d6000803e3d6000fd5b50505050336003600087815260200190815260200160002060040160006101000a81548173ffffffffffffffffffffffffffffffffffffffff021916908373ffffffffffffffffffffffffffffffffffffffff16021790555060016003600087815260200190815260200160002060060160006101000a81548160ff021916908315150217905550610a4d6002610b37565b600860009054906101000a900473ffffffffffffffffffffffffffffffffffffffff1673ffffffffffffffffffffffffffffffffffffffff166108fc859081150290604051600060405180830381858888f19350505050158015610ab5573d6000803e3d6000fd5b50818673ffffffffffffffffffffffffffffffffffffffff16867f85dc41ff4bb2b08fc7711fa36a6b7534248e42efc43fe931932627ab6d7276653387604051610b00929190610ebc565b60405180910390a45050506001600081905550505050565b6000610b246002610b29565b905090565b600081600001549050919050565b6001816000016000828254019250508190555050565b6040518060e0016040528060008152602001600073ffffffffffffffffffffffffffffffffffffffff16815260200160008152602001600073ffffffffffffffffffffffffffffffffffffffff168152602001600073ffffffffffffffffffffffffffffffffffffffff168152602001600081526020016000151581525090565b600081359050610bdd816111ec565b92915050565b600081359050610bf281611203565b92915050565b600080600060608486031215610c0d57600080fd5b6000610c1b86828701610bce565b9350506020610c2c86828701610be3565b9250506040610c3d86828701610be3565b9150509250925092565b6000610c538383610d94565b60e08301905092915050565b610c6881611088565b82525050565b610c7781611076565b82525050565b610c8681611076565b82525050565b6000610c9782610fb2565b610ca18185610fca565b9350610cac83610fa2565b8060005b83811015610cdd578151610cc48882610c47565b9750610ccf83610fbd565b925050600181019050610cb0565b5085935050505092915050565b610cf38161109a565b82525050565b610d028161109a565b82525050565b6000610d15601483610fdb565b9150610d2082611148565b602082019050919050565b6000610d38601d83610fdb565b9150610d4382611171565b602082019050919050565b6000610d5b601f83610fdb565b9150610d668261119a565b602082019050919050565b6000610d7e601f83610fdb565b9150610d89826111c3565b602082019050919050565b60e082016000820151610daa6000850182610e22565b506020820151610dbd6020850182610c6e565b506040820151610dd06040850182610e22565b506060820151610de36060850182610c5f565b506080820151610df66080850182610c5f565b5060a0820151610e0960a0850182610e22565b5060c0820151610e1c60c0850182610cea565b50505050565b610e2b816110c6565b82525050565b610e3a816110c6565b82525050565b6000608082019050610e556000830187610c7d565b610e626020830186610c7d565b610e6f6040830185610c7d565b610e7c6060830184610cf9565b95945050505050565b6000606082019050610e9a6000830186610c7d565b610ea76020830185610c7d565b610eb46040830184610e31565b949350505050565b6000604082019050610ed16000830185610c7d565b610ede6020830184610e31565b9392505050565b60006020820190508181036000830152610eff8184610c8c565b905092915050565b60006020820190508181036000830152610f2081610d08565b9050919050565b60006020820190508181036000830152610f4081610d2b565b9050919050565b60006020820190508181036000830152610f6081610d4e565b9050919050565b60006020820190508181036000830152610f8081610d71565b9050919050565b6000602082019050610f9c6000830184610e31565b92915050565b6000819050602082019050919050565b600081519050919050565b6000602082019050919050565b600082825260208201905092915050565b600082825260208201905092915050565b6000610ff7826110c6565b9150611002836110c6565b9250827fffffffffffffffffffffffffffffffffffffffffffffffffffffffffffffffff0382111561103757611036611119565b5b828201905092915050565b600061104d826110c6565b9150611058836110c6565b92508282101561106b5761106a611119565b5b828203905092915050565b6000611081826110a6565b9050919050565b6000611093826110a6565b9050919050565b60008115159050919050565b600073ffffffffffffffffffffffffffffffffffffffff82169050919050565b6000819050919050565b60006110db826110c6565b91507fffffffffffffffffffffffffffffffffffffffffffffffffffffffffffffffff82141561110e5761110d611119565b5b600182019050919050565b7f4e487b7100000000000000000000000000000000000000000000000000000000600052601160045260246000fd5b7f50726963652063616e2774206265203020776569000000000000000000000000600082015250565b7f4f6e6c79206465706c6f7965722063616e207769746864726177203a29000000600082015250565b7f456e7465722074686520617274776f726b2073656c6c696e6720507269636500600082015250565b7f5265656e7472616e637947756172643a207265656e7472616e742063616c6c00600082015250565b6111f581611076565b811461120057600080fd5b50565b61120c816110c6565b811461121757600080fd5b5056fea2646970667358221220a3ba2a6bcec320412481385c33d54420f4bfaec381c70dff43857396f12d948264736f6c63430008040033",
  "linkReferences": {},
  "deployedLinkReferences": {}
}