{
  "_format": "hh-sol-artifact-1",
  "contractName": "LazyFactory",
  "sourceName": "contracts/LazyFactory.sol",
  "abi": [
    {
      "inputs": [
        {
          "internalType": "address payable",
          "name": "marketplaceAddress",
          "type": "address"
        },
        {
          "internalType": "string",
          "name": "name",
          "type": "string"
        },
        {
          "internalType": "string",
          "name": "symbol",
          "type": "string"
        },
        {
          "internalType": "address payable",
          "name": "artist",
          "type": "address"
        }
      ],
      "stateMutability": "nonpayable",
      "type": "constructor"
    },
    {
      "anonymous": false,
      "inputs": [
        {
          "indexed": true,
          "internalType": "address",
          "name": "owner",
          "type": "address"
        },
        {
          "indexed": true,
          "internalType": "address",
          "name": "approved",
          "type": "address"
        },
        {
          "indexed": true,
          "internalType": "uint256",
          "name": "tokenId",
          "type": "uint256"
        }
      ],
      "name": "Approval",
      "type": "event"
    },
    {
      "anonymous": false,
      "inputs": [
        {
          "indexed": true,
          "internalType": "address",
          "name": "owner",
          "type": "address"
        },
        {
          "indexed": true,
          "internalType": "address",
          "name": "operator",
          "type": "address"
        },
        {
          "indexed": false,
          "internalType": "bool",
          "name": "approved",
          "type": "bool"
        }
      ],
      "name": "ApprovalForAll",
      "type": "event"
    },
    {
      "anonymous": false,
      "inputs": [
        {
          "indexed": true,
          "internalType": "uint256",
          "name": "tokenId",
          "type": "uint256"
        }
      ],
      "name": "RedeemedAndMinted",
      "type": "event"
    },
    {
      "anonymous": false,
      "inputs": [
        {
          "indexed": true,
          "internalType": "bytes32",
          "name": "role",
          "type": "bytes32"
        },
        {
          "indexed": true,
          "internalType": "bytes32",
          "name": "previousAdminRole",
          "type": "bytes32"
        },
        {
          "indexed": true,
          "internalType": "bytes32",
          "name": "newAdminRole",
          "type": "bytes32"
        }
      ],
      "name": "RoleAdminChanged",
      "type": "event"
    },
    {
      "anonymous": false,
      "inputs": [
        {
          "indexed": true,
          "internalType": "bytes32",
          "name": "role",
          "type": "bytes32"
        },
        {
          "indexed": true,
          "internalType": "address",
          "name": "account",
          "type": "address"
        },
        {
          "indexed": true,
          "internalType": "address",
          "name": "sender",
          "type": "address"
        }
      ],
      "name": "RoleGranted",
      "type": "event"
    },
    {
      "anonymous": false,
      "inputs": [
        {
          "indexed": true,
          "internalType": "bytes32",
          "name": "role",
          "type": "bytes32"
        },
        {
          "indexed": true,
          "internalType": "address",
          "name": "account",
          "type": "address"
        },
        {
          "indexed": true,
          "internalType": "address",
          "name": "sender",
          "type": "address"
        }
      ],
      "name": "RoleRevoked",
      "type": "event"
    },
    {
      "anonymous": false,
      "inputs": [
        {
          "indexed": true,
          "internalType": "address",
          "name": "from",
          "type": "address"
        },
        {
          "indexed": true,
          "internalType": "address",
          "name": "to",
          "type": "address"
        },
        {
          "indexed": true,
          "internalType": "uint256",
          "name": "tokenId",
          "type": "uint256"
        }
      ],
      "name": "Transfer",
      "type": "event"
    },
    {
      "inputs": [],
      "name": "DEFAULT_ADMIN_ROLE",
      "outputs": [
        {
          "internalType": "bytes32",
          "name": "",
          "type": "bytes32"
        }
      ],
      "stateMutability": "view",
      "type": "function"
    },
    {
      "inputs": [],
      "name": "SIGNER_ROLE",
      "outputs": [
        {
          "internalType": "bytes32",
          "name": "",
          "type": "bytes32"
        }
      ],
      "stateMutability": "view",
      "type": "function"
    },
    {
      "inputs": [
        {
          "internalType": "address",
          "name": "to",
          "type": "address"
        },
        {
          "internalType": "uint256",
          "name": "tokenId",
          "type": "uint256"
        }
      ],
      "name": "approve",
      "outputs": [],
      "stateMutability": "nonpayable",
      "type": "function"
    },
    {
      "inputs": [
        {
          "internalType": "address",
          "name": "owner",
          "type": "address"
        }
      ],
      "name": "balanceOf",
      "outputs": [
        {
          "internalType": "uint256",
          "name": "",
          "type": "uint256"
        }
      ],
      "stateMutability": "view",
      "type": "function"
    },
    {
      "inputs": [
        {
          "internalType": "uint256",
          "name": "tokenId",
          "type": "uint256"
        }
      ],
      "name": "getApproved",
      "outputs": [
        {
          "internalType": "address",
          "name": "",
          "type": "address"
        }
      ],
      "stateMutability": "view",
      "type": "function"
    },
    {
      "inputs": [],
      "name": "getChainID",
      "outputs": [
        {
          "internalType": "uint256",
          "name": "",
          "type": "uint256"
        }
      ],
      "stateMutability": "view",
      "type": "function"
    },
    {
      "inputs": [
        {
          "internalType": "bytes32",
          "name": "role",
          "type": "bytes32"
        }
      ],
      "name": "getRoleAdmin",
      "outputs": [
        {
          "internalType": "bytes32",
          "name": "",
          "type": "bytes32"
        }
      ],
      "stateMutability": "view",
      "type": "function"
    },
    {
      "inputs": [
        {
          "internalType": "bytes32",
          "name": "role",
          "type": "bytes32"
        },
        {
          "internalType": "address",
          "name": "account",
          "type": "address"
        }
      ],
      "name": "grantRole",
      "outputs": [],
      "stateMutability": "nonpayable",
      "type": "function"
    },
    {
      "inputs": [
        {
          "internalType": "bytes32",
          "name": "role",
          "type": "bytes32"
        },
        {
          "internalType": "address",
          "name": "account",
          "type": "address"
        }
      ],
      "name": "hasRole",
      "outputs": [
        {
          "internalType": "bool",
          "name": "",
          "type": "bool"
        }
      ],
      "stateMutability": "view",
      "type": "function"
    },
    {
      "inputs": [
        {
          "internalType": "address",
          "name": "owner",
          "type": "address"
        },
        {
          "internalType": "address",
          "name": "operator",
          "type": "address"
        }
      ],
      "name": "isApprovedForAll",
      "outputs": [
        {
          "internalType": "bool",
          "name": "",
          "type": "bool"
        }
      ],
      "stateMutability": "view",
      "type": "function"
    },
    {
      "inputs": [],
      "name": "name",
      "outputs": [
        {
          "internalType": "string",
          "name": "",
          "type": "string"
        }
      ],
      "stateMutability": "view",
      "type": "function"
    },
    {
      "inputs": [
        {
          "internalType": "uint256",
          "name": "tokenId",
          "type": "uint256"
        }
      ],
      "name": "ownerOf",
      "outputs": [
        {
          "internalType": "address",
          "name": "",
          "type": "address"
        }
      ],
      "stateMutability": "view",
      "type": "function"
    },
    {
      "inputs": [
        {
          "internalType": "address",
          "name": "buyer",
          "type": "address"
        },
        {
          "components": [
            {
              "internalType": "string",
              "name": "title",
              "type": "string"
            },
            {
              "internalType": "uint256",
              "name": "artworkId",
              "type": "uint256"
            },
            {
              "internalType": "string",
              "name": "editionNumber",
              "type": "string"
            },
            {
              "internalType": "string",
              "name": "edition",
              "type": "string"
            },
            {
              "internalType": "uint256",
              "name": "priceWei",
              "type": "uint256"
            },
            {
              "internalType": "string",
              "name": "priceDollar",
              "type": "string"
            },
            {
              "internalType": "string",
              "name": "tokenUri",
              "type": "string"
            },
            {
              "internalType": "string",
              "name": "content",
              "type": "string"
            },
            {
              "internalType": "bytes",
              "name": "signature",
              "type": "bytes"
            }
          ],
          "internalType": "struct LazyFactory.Voucher",
          "name": "voucher",
          "type": "tuple"
        },
        {
          "internalType": "uint256",
          "name": "vadeeFee",
          "type": "uint256"
        }
      ],
      "name": "redeem",
      "outputs": [],
      "stateMutability": "payable",
      "type": "function"
    },
    {
      "inputs": [
        {
          "internalType": "bytes32",
          "name": "role",
          "type": "bytes32"
        },
        {
          "internalType": "address",
          "name": "account",
          "type": "address"
        }
      ],
      "name": "renounceRole",
      "outputs": [],
      "stateMutability": "nonpayable",
      "type": "function"
    },
    {
      "inputs": [
        {
          "internalType": "bytes32",
          "name": "role",
          "type": "bytes32"
        },
        {
          "internalType": "address",
          "name": "account",
          "type": "address"
        }
      ],
      "name": "revokeRole",
      "outputs": [],
      "stateMutability": "nonpayable",
      "type": "function"
    },
    {
      "inputs": [
        {
          "internalType": "address",
          "name": "from",
          "type": "address"
        },
        {
          "internalType": "address",
          "name": "to",
          "type": "address"
        },
        {
          "internalType": "uint256",
          "name": "tokenId",
          "type": "uint256"
        }
      ],
      "name": "safeTransferFrom",
      "outputs": [],
      "stateMutability": "nonpayable",
      "type": "function"
    },
    {
      "inputs": [
        {
          "internalType": "address",
          "name": "from",
          "type": "address"
        },
        {
          "internalType": "address",
          "name": "to",
          "type": "address"
        },
        {
          "internalType": "uint256",
          "name": "tokenId",
          "type": "uint256"
        },
        {
          "internalType": "bytes",
          "name": "_data",
          "type": "bytes"
        }
      ],
      "name": "safeTransferFrom",
      "outputs": [],
      "stateMutability": "nonpayable",
      "type": "function"
    },
    {
      "inputs": [
        {
          "internalType": "address",
          "name": "operator",
          "type": "address"
        },
        {
          "internalType": "bool",
          "name": "approved",
          "type": "bool"
        }
      ],
      "name": "setApprovalForAll",
      "outputs": [],
      "stateMutability": "nonpayable",
      "type": "function"
    },
    {
      "inputs": [
        {
          "internalType": "bytes4",
          "name": "interfaceId",
          "type": "bytes4"
        }
      ],
      "name": "supportsInterface",
      "outputs": [
        {
          "internalType": "bool",
          "name": "",
          "type": "bool"
        }
      ],
      "stateMutability": "view",
      "type": "function"
    },
    {
      "inputs": [],
      "name": "symbol",
      "outputs": [
        {
          "internalType": "string",
          "name": "",
          "type": "string"
        }
      ],
      "stateMutability": "view",
      "type": "function"
    },
    {
      "inputs": [
        {
          "internalType": "uint256",
          "name": "tokenId",
          "type": "uint256"
        }
      ],
      "name": "tokenURI",
      "outputs": [
        {
          "internalType": "string",
          "name": "",
          "type": "string"
        }
      ],
      "stateMutability": "view",
      "type": "function"
    },
    {
      "inputs": [
        {
          "internalType": "address",
          "name": "from",
          "type": "address"
        },
        {
          "internalType": "address",
          "name": "to",
          "type": "address"
        },
        {
          "internalType": "uint256",
          "name": "tokenId",
          "type": "uint256"
        }
      ],
      "name": "transferFrom",
      "outputs": [],
      "stateMutability": "nonpayable",
      "type": "function"
    }
  ],
  "bytecode": "0x6101406040523480156200001257600080fd5b506040516200531738038062005317833981810160405281019062000038919062000545565b6040518060400160405280600581526020017f56414445450000000000000000000000000000000000000000000000000000008152506040518060400160405280600181526020017f310000000000000000000000000000000000000000000000000000000000000081525084848160009080519060200190620000be9291906200040c565b508060019080519060200190620000d79291906200040c565b50505060008280519060200120905060008280519060200120905060007f8b73c3c69bb8fe3d512ecc4cf759cc79239f7b179b0ffacaa9a75d522b39400f90508260e081815250508161010081815250504660a08181525050620001438184846200025560201b60201c565b608081815250503073ffffffffffffffffffffffffffffffffffffffff1660c08173ffffffffffffffffffffffffffffffffffffffff1660601b8152505080610120818152505050505050506001600881905550620001c97fe2f4eaae4a9751e85a3e4a7b9587827a877f29914755229b07a7b2da98285f70826200029160201b60201c565b83600960006101000a81548173ffffffffffffffffffffffffffffffffffffffff021916908373ffffffffffffffffffffffffffffffffffffffff16021790555080600a60006101000a81548173ffffffffffffffffffffffffffffffffffffffff021916908373ffffffffffffffffffffffffffffffffffffffff1602179055505050505062000859565b600083838346306040516020016200027295949392919062000616565b6040516020818303038152906040528051906020012090509392505050565b620002a38282620002a760201b60201c565b5050565b620002b982826200039960201b60201c565b620003955760016007600084815260200190815260200160002060000160008373ffffffffffffffffffffffffffffffffffffffff1673ffffffffffffffffffffffffffffffffffffffff16815260200190815260200160002060006101000a81548160ff0219169083151502179055506200033a6200040460201b60201c565b73ffffffffffffffffffffffffffffffffffffffff168173ffffffffffffffffffffffffffffffffffffffff16837f2f8788117e7eff1d82e926ec794901d17c78024a50270940304540a733656f0d60405160405180910390a45b5050565b60006007600084815260200190815260200160002060000160008373ffffffffffffffffffffffffffffffffffffffff1673ffffffffffffffffffffffffffffffffffffffff16815260200190815260200160002060009054906101000a900460ff16905092915050565b600033905090565b8280546200041a9062000764565b90600052602060002090601f0160209004810192826200043e57600085556200048a565b82601f106200045957805160ff19168380011785556200048a565b828001600101855582156200048a579182015b82811115620004895782518255916020019190600101906200046c565b5b5090506200049991906200049d565b5090565b5b80821115620004b85760008160009055506001016200049e565b5090565b6000620004d3620004cd846200069c565b62000673565b905082815260208101848484011115620004ec57600080fd5b620004f98482856200072e565b509392505050565b60008151905062000512816200083f565b92915050565b600082601f8301126200052a57600080fd5b81516200053c848260208601620004bc565b91505092915050565b600080600080608085870312156200055c57600080fd5b60006200056c8782880162000501565b945050602085015167ffffffffffffffff8111156200058a57600080fd5b620005988782880162000518565b935050604085015167ffffffffffffffff811115620005b657600080fd5b620005c48782880162000518565b9250506060620005d78782880162000501565b91505092959194509250565b620005ee81620006d2565b82525050565b620005ff81620006fa565b82525050565b620006108162000724565b82525050565b600060a0820190506200062d6000830188620005f4565b6200063c6020830187620005f4565b6200064b6040830186620005f4565b6200065a606083018562000605565b620006696080830184620005e3565b9695505050505050565b60006200067f62000692565b90506200068d82826200079a565b919050565b6000604051905090565b600067ffffffffffffffff821115620006ba57620006b9620007ff565b5b620006c5826200082e565b9050602081019050919050565b6000620006df8262000704565b9050919050565b6000620006f38262000704565b9050919050565b6000819050919050565b600073ffffffffffffffffffffffffffffffffffffffff82169050919050565b6000819050919050565b60005b838110156200074e57808201518184015260208101905062000731565b838111156200075e576000848401525b50505050565b600060028204905060018216806200077d57607f821691505b60208210811415620007945762000793620007d0565b5b50919050565b620007a5826200082e565b810181811067ffffffffffffffff82111715620007c757620007c6620007ff565b5b80604052505050565b7f4e487b7100000000000000000000000000000000000000000000000000000000600052602260045260246000fd5b7f4e487b7100000000000000000000000000000000000000000000000000000000600052604160045260246000fd5b6000601f19601f8301169050919050565b6200084a81620006e6565b81146200085657600080fd5b50565b60805160a05160c05160601c60e0516101005161012051614a6b620008ac6000396000612b9f01526000612be101526000612bc001526000612af501526000612b4b01526000612b740152614a6b6000f3fe6080604052600436106101355760003560e01c806370a08231116100ab578063a22cb4651161006f578063a22cb4651461044c578063b88d4fde14610475578063c2a264cf1461049e578063c87b56dd146104ba578063d547741f146104f7578063e985e9c51461052057610135565b806370a082311461035157806391d148541461038e57806395d89b41146103cb578063a1ebf35d146103f6578063a217fddf1461042157610135565b8063248a9ca3116100fd578063248a9ca3146102315780632f2ff15d1461026e57806336568abe1461029757806342842e0e146102c0578063564b81ef146102e95780636352211e1461031457610135565b806301ffc9a71461013a57806306fdde0314610177578063081812fc146101a2578063095ea7b3146101df57806323b872dd14610208575b600080fd5b34801561014657600080fd5b50610161600480360381019061015c91906131fc565b61055d565b60405161016e91906138ad565b60405180910390f35b34801561018357600080fd5b5061018c61057f565b6040516101999190613a08565b60405180910390f35b3480156101ae57600080fd5b506101c960048036038101906101c4919061324e565b610611565b6040516101d69190613846565b60405180910390f35b3480156101eb57600080fd5b506102066004803603810190610201919061315b565b610696565b005b34801561021457600080fd5b5061022f600480360381019061022a9190612fee565b6107ae565b005b34801561023d57600080fd5b5061025860048036038101906102539190613197565b61080e565b60405161026591906138c8565b60405180910390f35b34801561027a57600080fd5b50610295600480360381019061029091906131c0565b61082e565b005b3480156102a357600080fd5b506102be60048036038101906102b991906131c0565b610857565b005b3480156102cc57600080fd5b506102e760048036038101906102e29190612fee565b6108da565b005b3480156102f557600080fd5b506102fe6108fa565b60405161030b9190613d6a565b60405180910390f35b34801561032057600080fd5b5061033b6004803603810190610336919061324e565b610907565b6040516103489190613846565b60405180910390f35b34801561035d57600080fd5b5061037860048036038101906103739190612f89565b6109b9565b6040516103859190613d6a565b60405180910390f35b34801561039a57600080fd5b506103b560048036038101906103b091906131c0565b610a71565b6040516103c291906138ad565b60405180910390f35b3480156103d757600080fd5b506103e0610adc565b6040516103ed9190613a08565b60405180910390f35b34801561040257600080fd5b5061040b610b6e565b60405161041891906138c8565b60405180910390f35b34801561042d57600080fd5b50610436610b92565b60405161044391906138c8565b60405180910390f35b34801561045857600080fd5b50610473600480360381019061046e91906130b8565b610b99565b005b34801561048157600080fd5b5061049c6004803603810190610497919061303d565b610baf565b005b6104b860048036038101906104b391906130f4565b610c11565b005b3480156104c657600080fd5b506104e160048036038101906104dc919061324e565b610f34565b6040516104ee9190613a08565b60405180910390f35b34801561050357600080fd5b5061051e600480360381019061051991906131c0565b611086565b005b34801561052c57600080fd5b5061054760048036038101906105429190612fb2565b6110af565b60405161055491906138ad565b60405180910390f35b600061056882611143565b80610578575061057782611225565b5b9050919050565b60606000805461058e906140e3565b80601f01602080910402602001604051908101604052809291908181526020018280546105ba906140e3565b80156106075780601f106105dc57610100808354040283529160200191610607565b820191906000526020600020905b8154815290600101906020018083116105ea57829003601f168201915b5050505050905090565b600061061c8261129f565b61065b576040517f08c379a000000000000000000000000000000000000000000000000000000000815260040161065290613c6a565b60405180910390fd5b6004600083815260200190815260200160002060009054906101000a900473ffffffffffffffffffffffffffffffffffffffff169050919050565b60006106a182610907565b90508073ffffffffffffffffffffffffffffffffffffffff168373ffffffffffffffffffffffffffffffffffffffff161415610712576040517f08c379a000000000000000000000000000000000000000000000000000000000815260040161070990613cca565b60405180910390fd5b8073ffffffffffffffffffffffffffffffffffffffff1661073161130b565b73ffffffffffffffffffffffffffffffffffffffff161480610760575061075f8161075a61130b565b6110af565b5b61079f576040517f08c379a000000000000000000000000000000000000000000000000000000000815260040161079690613b6a565b60405180910390fd5b6107a98383611313565b505050565b6107bf6107b961130b565b826113cc565b6107fe576040517f08c379a00000000000000000000000000000000000000000000000000000000081526004016107f590613d0a565b60405180910390fd5b6108098383836114aa565b505050565b600060076000838152602001908152602001600020600101549050919050565b6108378261080e565b6108488161084361130b565b611711565b61085283836117ae565b505050565b61085f61130b565b73ffffffffffffffffffffffffffffffffffffffff168173ffffffffffffffffffffffffffffffffffffffff16146108cc576040517f08c379a00000000000000000000000000000000000000000000000000000000081526004016108c390613d4a565b60405180910390fd5b6108d6828261188f565b5050565b6108f583838360405180602001604052806000815250610baf565b505050565b6000804690508091505090565b6000806002600084815260200190815260200160002060009054906101000a900473ffffffffffffffffffffffffffffffffffffffff169050600073ffffffffffffffffffffffffffffffffffffffff168173ffffffffffffffffffffffffffffffffffffffff1614156109b0576040517f08c379a00000000000000000000000000000000000000000000000000000000081526004016109a790613baa565b60405180910390fd5b80915050919050565b60008073ffffffffffffffffffffffffffffffffffffffff168273ffffffffffffffffffffffffffffffffffffffff161415610a2a576040517f08c379a0000000000000000000000000000000000000000000000000000000008152600401610a2190613b8a565b60405180910390fd5b600360008373ffffffffffffffffffffffffffffffffffffffff1673ffffffffffffffffffffffffffffffffffffffff168152602001908152602001600020549050919050565b60006007600084815260200190815260200160002060000160008373ffffffffffffffffffffffffffffffffffffffff1673ffffffffffffffffffffffffffffffffffffffff16815260200190815260200160002060009054906101000a900460ff16905092915050565b606060018054610aeb906140e3565b80601f0160208091040260200160405190810160405280929190818152602001828054610b17906140e3565b8015610b645780601f10610b3957610100808354040283529160200191610b64565b820191906000526020600020905b815481529060010190602001808311610b4757829003601f168201915b5050505050905090565b7fe2f4eaae4a9751e85a3e4a7b9587827a877f29914755229b07a7b2da98285f7081565b6000801b81565b610bab610ba461130b565b8383611971565b5050565b610bc0610bba61130b565b836113cc565b610bff576040517f08c379a0000000000000000000000000000000000000000000000000000000008152600401610bf690613d0a565b60405180910390fd5b610c0b84848484611ade565b50505050565b60026008541415610c57576040517f08c379a0000000000000000000000000000000000000000000000000000000008152600401610c4e90613d2a565b60405180910390fd5b60026008819055506000610c6a83611b3a565b905082608001353414610cb2576040517f08c379a0000000000000000000000000000000000000000000000000000000008152600401610ca990613cea565b60405180910390fd5b8373ffffffffffffffffffffffffffffffffffffffff168173ffffffffffffffffffffffffffffffffffffffff161415610d21576040517f08c379a0000000000000000000000000000000000000000000000000000000008152600401610d1890613bea565b60405180910390fd5b610d4b7fe2f4eaae4a9751e85a3e4a7b9587827a877f29914755229b07a7b2da98285f7082610a71565b610d8a576040517f08c379a0000000000000000000000000000000000000000000000000000000008152600401610d8190613c8a565b60405180910390fd5b610d98818460200135611bad565b610df88360200135848060c00190610db09190613ddc565b8080601f016020809104026020016040519081016040528093929190818152602001838380828437600081840152601f19601f82011690508083019250505050505050611d87565b610e25600960009054906101000a900473ffffffffffffffffffffffffffffffffffffffff166001610b99565b610e34818585602001356114aa565b60003490508173ffffffffffffffffffffffffffffffffffffffff166108fc8483610e5f9190613fb8565b9081150290604051600060405180830381858888f19350505050158015610e8a573d6000803e3d6000fd5b50600960009054906101000a900473ffffffffffffffffffffffffffffffffffffffff1673ffffffffffffffffffffffffffffffffffffffff166108fc849081150290604051600060405180830381858888f19350505050158015610ef3573d6000803e3d6000fd5b5083602001357fe925326602e433d1e45b5c79b4ff305e4a75ea3a9c63be961abb9e36bd29b47c60405160405180910390a250506001600881905550505050565b6060610f3f8261129f565b610f7e576040517f08c379a0000000000000000000000000000000000000000000000000000000008152600401610f7590613c4a565b60405180910390fd5b6000600660008481526020019081526020016000208054610f9e906140e3565b80601f0160208091040260200160405190810160405280929190818152602001828054610fca906140e3565b80156110175780601f10610fec57610100808354040283529160200191611017565b820191906000526020600020905b815481529060010190602001808311610ffa57829003601f168201915b505050505090506000611028611dfb565b905060008151141561103e578192505050611081565b60008251111561107357808260405160200161105b9291906137b1565b60405160208183030381529060405292505050611081565b61107c84611e12565b925050505b919050565b61108f8261080e565b6110a08161109b61130b565b611711565b6110aa838361188f565b505050565b6000600560008473ffffffffffffffffffffffffffffffffffffffff1673ffffffffffffffffffffffffffffffffffffffff16815260200190815260200160002060008373ffffffffffffffffffffffffffffffffffffffff1673ffffffffffffffffffffffffffffffffffffffff16815260200190815260200160002060009054906101000a900460ff16905092915050565b60007f80ac58cd000000000000000000000000000000000000000000000000000000007bffffffffffffffffffffffffffffffffffffffffffffffffffffffff1916827bffffffffffffffffffffffffffffffffffffffffffffffffffffffff1916148061120e57507f5b5e139f000000000000000000000000000000000000000000000000000000007bffffffffffffffffffffffffffffffffffffffffffffffffffffffff1916827bffffffffffffffffffffffffffffffffffffffffffffffffffffffff1916145b8061121e575061121d82611eb9565b5b9050919050565b60007f7965db0b000000000000000000000000000000000000000000000000000000007bffffffffffffffffffffffffffffffffffffffffffffffffffffffff1916827bffffffffffffffffffffffffffffffffffffffffffffffffffffffff19161480611298575061129782611143565b5b9050919050565b60008073ffffffffffffffffffffffffffffffffffffffff166002600084815260200190815260200160002060009054906101000a900473ffffffffffffffffffffffffffffffffffffffff1673ffffffffffffffffffffffffffffffffffffffff1614159050919050565b600033905090565b816004600083815260200190815260200160002060006101000a81548173ffffffffffffffffffffffffffffffffffffffff021916908373ffffffffffffffffffffffffffffffffffffffff160217905550808273ffffffffffffffffffffffffffffffffffffffff1661138683610907565b73ffffffffffffffffffffffffffffffffffffffff167f8c5be1e5ebec7d5bd14f71427d1e84f3dd0314c0f7b2291e5b200ac8c7c3b92560405160405180910390a45050565b60006113d78261129f565b611416576040517f08c379a000000000000000000000000000000000000000000000000000000000815260040161140d90613b4a565b60405180910390fd5b600061142183610907565b90508073ffffffffffffffffffffffffffffffffffffffff168473ffffffffffffffffffffffffffffffffffffffff16148061149057508373ffffffffffffffffffffffffffffffffffffffff1661147884610611565b73ffffffffffffffffffffffffffffffffffffffff16145b806114a157506114a081856110af565b5b91505092915050565b8273ffffffffffffffffffffffffffffffffffffffff166114ca82610907565b73ffffffffffffffffffffffffffffffffffffffff1614611520576040517f08c379a000000000000000000000000000000000000000000000000000000000815260040161151790613aaa565b60405180910390fd5b600073ffffffffffffffffffffffffffffffffffffffff168273ffffffffffffffffffffffffffffffffffffffff161415611590576040517f08c379a000000000000000000000000000000000000000000000000000000000815260040161158790613aea565b60405180910390fd5b61159b838383611f23565b6115a6600082611313565b6001600360008573ffffffffffffffffffffffffffffffffffffffff1673ffffffffffffffffffffffffffffffffffffffff16815260200190815260200160002060008282546115f69190613fb8565b925050819055506001600360008473ffffffffffffffffffffffffffffffffffffffff1673ffffffffffffffffffffffffffffffffffffffff168152602001908152602001600020600082825461164d9190613ed7565b92505081905550816002600083815260200190815260200160002060006101000a81548173ffffffffffffffffffffffffffffffffffffffff021916908373ffffffffffffffffffffffffffffffffffffffff160217905550808273ffffffffffffffffffffffffffffffffffffffff168473ffffffffffffffffffffffffffffffffffffffff167fddf252ad1be2c89b69c2b068fc378daa952ba7f163c4a11628f55a4df523b3ef60405160405180910390a461170c838383611f28565b505050565b61171b8282610a71565b6117aa576117408173ffffffffffffffffffffffffffffffffffffffff166014611f2d565b61174e8360001c6020611f2d565b60405160200161175f92919061380c565b6040516020818303038152906040526040517f08c379a00000000000000000000000000000000000000000000000000000000081526004016117a19190613a08565b60405180910390fd5b5050565b6117b88282610a71565b61188b5760016007600084815260200190815260200160002060000160008373ffffffffffffffffffffffffffffffffffffffff1673ffffffffffffffffffffffffffffffffffffffff16815260200190815260200160002060006101000a81548160ff02191690831515021790555061183061130b565b73ffffffffffffffffffffffffffffffffffffffff168173ffffffffffffffffffffffffffffffffffffffff16837f2f8788117e7eff1d82e926ec794901d17c78024a50270940304540a733656f0d60405160405180910390a45b5050565b6118998282610a71565b1561196d5760006007600084815260200190815260200160002060000160008373ffffffffffffffffffffffffffffffffffffffff1673ffffffffffffffffffffffffffffffffffffffff16815260200190815260200160002060006101000a81548160ff02191690831515021790555061191261130b565b73ffffffffffffffffffffffffffffffffffffffff168173ffffffffffffffffffffffffffffffffffffffff16837ff6391f5c32d9c69d2a47ea670b442974b53935d1edc7fd64eb21e047a839171b60405160405180910390a45b5050565b8173ffffffffffffffffffffffffffffffffffffffff168373ffffffffffffffffffffffffffffffffffffffff1614156119e0576040517f08c379a00000000000000000000000000000000000000000000000000000000081526004016119d790613b0a565b60405180910390fd5b80600560008573ffffffffffffffffffffffffffffffffffffffff1673ffffffffffffffffffffffffffffffffffffffff16815260200190815260200160002060008473ffffffffffffffffffffffffffffffffffffffff1673ffffffffffffffffffffffffffffffffffffffff16815260200190815260200160002060006101000a81548160ff0219169083151502179055508173ffffffffffffffffffffffffffffffffffffffff168373ffffffffffffffffffffffffffffffffffffffff167f17307eab39ab6107e8899845ad3d59bd9653f200f220920489ca2b5937696c3183604051611ad191906138ad565b60405180910390a3505050565b611ae98484846114aa565b611af584848484612227565b611b34576040517f08c379a0000000000000000000000000000000000000000000000000000000008152600401611b2b90613a8a565b60405180910390fd5b50505050565b600080611b46836123be565b9050611ba58184806101000190611b5d9190613d85565b8080601f016020809104026020016040519081016040528093929190818152602001838380828437600081840152601f19601f8201169050808301925050505050505061250c565b915050919050565b600073ffffffffffffffffffffffffffffffffffffffff168273ffffffffffffffffffffffffffffffffffffffff161415611c1d576040517f08c379a0000000000000000000000000000000000000000000000000000000008152600401611c1490613c2a565b60405180910390fd5b611c268161129f565b15611c66576040517f08c379a0000000000000000000000000000000000000000000000000000000008152600401611c5d90613aca565b60405180910390fd5b611c7260008383611f23565b6001600360008473ffffffffffffffffffffffffffffffffffffffff1673ffffffffffffffffffffffffffffffffffffffff1681526020019081526020016000206000828254611cc29190613ed7565b92505081905550816002600083815260200190815260200160002060006101000a81548173ffffffffffffffffffffffffffffffffffffffff021916908373ffffffffffffffffffffffffffffffffffffffff160217905550808273ffffffffffffffffffffffffffffffffffffffff16600073ffffffffffffffffffffffffffffffffffffffff167fddf252ad1be2c89b69c2b068fc378daa952ba7f163c4a11628f55a4df523b3ef60405160405180910390a4611d8360008383611f28565b5050565b611d908261129f565b611dcf576040517f08c379a0000000000000000000000000000000000000000000000000000000008152600401611dc690613bca565b60405180910390fd5b80600660008481526020019081526020016000209080519060200190611df6929190612de4565b505050565b606060405180602001604052806000815250905090565b6060611e1d8261129f565b611e5c576040517f08c379a0000000000000000000000000000000000000000000000000000000008152600401611e5390613caa565b60405180910390fd5b6000611e66611dfb565b90506000815111611e865760405180602001604052806000815250611eb1565b80611e9084612533565b604051602001611ea19291906137b1565b6040516020818303038152906040525b915050919050565b60007f01ffc9a7000000000000000000000000000000000000000000000000000000007bffffffffffffffffffffffffffffffffffffffffffffffffffffffff1916827bffffffffffffffffffffffffffffffffffffffffffffffffffffffff1916149050919050565b505050565b505050565b606060006002836002611f409190613f5e565b611f4a9190613ed7565b67ffffffffffffffff811115611f89577f4e487b7100000000000000000000000000000000000000000000000000000000600052604160045260246000fd5b6040519080825280601f01601f191660200182016040528015611fbb5781602001600182028036833780820191505090505b5090507f300000000000000000000000000000000000000000000000000000000000000081600081518110612019577f4e487b7100000000000000000000000000000000000000000000000000000000600052603260045260246000fd5b60200101907effffffffffffffffffffffffffffffffffffffffffffffffffffffffffffff1916908160001a9053507f7800000000000000000000000000000000000000000000000000000000000000816001815181106120a3577f4e487b7100000000000000000000000000000000000000000000000000000000600052603260045260246000fd5b60200101907effffffffffffffffffffffffffffffffffffffffffffffffffffffffffffff1916908160001a905350600060018460026120e39190613f5e565b6120ed9190613ed7565b90505b60018111156121d9577f3031323334353637383961626364656600000000000000000000000000000000600f861660108110612155577f4e487b7100000000000000000000000000000000000000000000000000000000600052603260045260246000fd5b1a60f81b828281518110612192577f4e487b7100000000000000000000000000000000000000000000000000000000600052603260045260246000fd5b60200101907effffffffffffffffffffffffffffffffffffffffffffffffffffffffffffff1916908160001a905350600485901c9450806121d2906140b9565b90506120f0565b506000841461221d576040517f08c379a000000000000000000000000000000000000000000000000000000000815260040161221490613a4a565b60405180910390fd5b8091505092915050565b60006122488473ffffffffffffffffffffffffffffffffffffffff166126e0565b156123b1578373ffffffffffffffffffffffffffffffffffffffff1663150b7a0261227161130b565b8786866040518563ffffffff1660e01b81526004016122939493929190613861565b602060405180830381600087803b1580156122ad57600080fd5b505af19250505080156122de57506040513d601f19601f820116820180604052508101906122db9190613225565b60015b612361573d806000811461230e576040519150601f19603f3d011682016040523d82523d6000602084013e612313565b606091505b50600081511415612359576040517f08c379a000000000000000000000000000000000000000000000000000000000815260040161235090613a8a565b60405180910390fd5b805181602001fd5b63150b7a0260e01b7bffffffffffffffffffffffffffffffffffffffffffffffffffffffff1916817bffffffffffffffffffffffffffffffffffffffffffffffffffffffff1916149150506123b6565b600190505b949350505050565b60006125057f8a4543536a07699fa90d70be7e25283d74ab9f38765bf394458acef3476205ad8380600001906123f49190613ddc565b604051612402929190613798565b6040518091039020846020013585806040019061241f9190613ddc565b60405161242d929190613798565b60405180910390208680606001906124459190613ddc565b604051612453929190613798565b60405180910390208760800135888060a001906124709190613ddc565b60405161247e929190613798565b6040518091039020898060c001906124969190613ddc565b6040516124a4929190613798565b60405180910390208a8060e001906124bc9190613ddc565b6040516124ca929190613798565b60405180910390206040516020016124ea99989796959493929190613936565b60405160208183030381529060405280519060200120612703565b9050919050565b600080600061251b858561271d565b91509150612528816127a0565b819250505092915050565b6060600082141561257b576040518060400160405280600181526020017f300000000000000000000000000000000000000000000000000000000000000081525090506126db565b600082905060005b600082146125ad57808061259690614146565b915050600a826125a69190613f2d565b9150612583565b60008167ffffffffffffffff8111156125ef577f4e487b7100000000000000000000000000000000000000000000000000000000600052604160045260246000fd5b6040519080825280601f01601f1916602001820160405280156126215781602001600182028036833780820191505090505b5090505b600085146126d45760018261263a9190613fb8565b9150600a856126499190614199565b60306126559190613ed7565b60f81b818381518110612691577f4e487b7100000000000000000000000000000000000000000000000000000000600052603260045260246000fd5b60200101907effffffffffffffffffffffffffffffffffffffffffffffffffffffffffffff1916908160001a905350600a856126cd9190613f2d565b9450612625565b8093505050505b919050565b6000808273ffffffffffffffffffffffffffffffffffffffff163b119050919050565b6000612716612710612af1565b83612c0b565b9050919050565b60008060418351141561275f5760008060006020860151925060408601519150606086015160001a905061275387828585612c3e565b94509450505050612799565b604083511415612790576000806020850151915060408501519050612785868383612d4b565b935093505050612799565b60006002915091505b9250929050565b600060048111156127da577f4e487b7100000000000000000000000000000000000000000000000000000000600052602160045260246000fd5b816004811115612813577f4e487b7100000000000000000000000000000000000000000000000000000000600052602160045260246000fd5b141561281e57612aee565b60016004811115612858577f4e487b7100000000000000000000000000000000000000000000000000000000600052602160045260246000fd5b816004811115612891577f4e487b7100000000000000000000000000000000000000000000000000000000600052602160045260246000fd5b14156128d2576040517f08c379a00000000000000000000000000000000000000000000000000000000081526004016128c990613a2a565b60405180910390fd5b6002600481111561290c577f4e487b7100000000000000000000000000000000000000000000000000000000600052602160045260246000fd5b816004811115612945577f4e487b7100000000000000000000000000000000000000000000000000000000600052602160045260246000fd5b1415612986576040517f08c379a000000000000000000000000000000000000000000000000000000000815260040161297d90613a6a565b60405180910390fd5b600360048111156129c0577f4e487b7100000000000000000000000000000000000000000000000000000000600052602160045260246000fd5b8160048111156129f9577f4e487b7100000000000000000000000000000000000000000000000000000000600052602160045260246000fd5b1415612a3a576040517f08c379a0000000000000000000000000000000000000000000000000000000008152600401612a3190613b2a565b60405180910390fd5b600480811115612a73577f4e487b7100000000000000000000000000000000000000000000000000000000600052602160045260246000fd5b816004811115612aac577f4e487b7100000000000000000000000000000000000000000000000000000000600052602160045260246000fd5b1415612aed576040517f08c379a0000000000000000000000000000000000000000000000000000000008152600401612ae490613c0a565b60405180910390fd5b5b50565b60007f000000000000000000000000000000000000000000000000000000000000000073ffffffffffffffffffffffffffffffffffffffff163073ffffffffffffffffffffffffffffffffffffffff16148015612b6d57507f000000000000000000000000000000000000000000000000000000000000000046145b15612b9a577f00000000000000000000000000000000000000000000000000000000000000009050612c08565b612c057f00000000000000000000000000000000000000000000000000000000000000007f00000000000000000000000000000000000000000000000000000000000000007f0000000000000000000000000000000000000000000000000000000000000000612daa565b90505b90565b60008282604051602001612c209291906137d5565b60405160208183030381529060405280519060200120905092915050565b6000807f7fffffffffffffffffffffffffffffff5d576e7357a4501ddfe92f46681b20a08360001c1115612c79576000600391509150612d42565b601b8560ff1614158015612c915750601c8560ff1614155b15612ca3576000600491509150612d42565b600060018787878760405160008152602001604052604051612cc894939291906139c3565b6020604051602081039080840390855afa158015612cea573d6000803e3d6000fd5b505050602060405103519050600073ffffffffffffffffffffffffffffffffffffffff168173ffffffffffffffffffffffffffffffffffffffff161415612d3957600060019250925050612d42565b80600092509250505b94509492505050565b60008060007f7fffffffffffffffffffffffffffffffffffffffffffffffffffffffffffffff60001b841690506000601b60ff8660001c901c612d8e9190613ed7565b9050612d9c87828885612c3e565b935093505050935093915050565b60008383834630604051602001612dc59594939291906138e3565b6040516020818303038152906040528051906020012090509392505050565b828054612df0906140e3565b90600052602060002090601f016020900481019282612e125760008555612e59565b82601f10612e2b57805160ff1916838001178555612e59565b82800160010185558215612e59579182015b82811115612e58578251825591602001919060010190612e3d565b5b509050612e669190612e6a565b5090565b5b80821115612e83576000816000905550600101612e6b565b5090565b6000612e9a612e9584613e58565b613e33565b905082815260208101848484011115612eb257600080fd5b612ebd848285614077565b509392505050565b600081359050612ed4816149c2565b92915050565b600081359050612ee9816149d9565b92915050565b600081359050612efe816149f0565b92915050565b600081359050612f1381614a07565b92915050565b600081519050612f2881614a07565b92915050565b600082601f830112612f3f57600080fd5b8135612f4f848260208601612e87565b91505092915050565b60006101208284031215612f6b57600080fd5b81905092915050565b600081359050612f8381614a1e565b92915050565b600060208284031215612f9b57600080fd5b6000612fa984828501612ec5565b91505092915050565b60008060408385031215612fc557600080fd5b6000612fd385828601612ec5565b9250506020612fe485828601612ec5565b9150509250929050565b60008060006060848603121561300357600080fd5b600061301186828701612ec5565b935050602061302286828701612ec5565b925050604061303386828701612f74565b9150509250925092565b6000806000806080858703121561305357600080fd5b600061306187828801612ec5565b945050602061307287828801612ec5565b935050604061308387828801612f74565b925050606085013567ffffffffffffffff8111156130a057600080fd5b6130ac87828801612f2e565b91505092959194509250565b600080604083850312156130cb57600080fd5b60006130d985828601612ec5565b92505060206130ea85828601612eda565b9150509250929050565b60008060006060848603121561310957600080fd5b600061311786828701612ec5565b935050602084013567ffffffffffffffff81111561313457600080fd5b61314086828701612f58565b925050604061315186828701612f74565b9150509250925092565b6000806040838503121561316e57600080fd5b600061317c85828601612ec5565b925050602061318d85828601612f74565b9150509250929050565b6000602082840312156131a957600080fd5b60006131b784828501612eef565b91505092915050565b600080604083850312156131d357600080fd5b60006131e185828601612eef565b92505060206131f285828601612ec5565b9150509250929050565b60006020828403121561320e57600080fd5b600061321c84828501612f04565b91505092915050565b60006020828403121561323757600080fd5b600061324584828501612f19565b91505092915050565b60006020828403121561326057600080fd5b600061326e84828501612f74565b91505092915050565b61328081613fec565b82525050565b61328f81613ffe565b82525050565b61329e8161400a565b82525050565b6132b56132b08261400a565b61418f565b82525050565b60006132c78385613eb0565b93506132d4838584614077565b82840190509392505050565b60006132eb82613e89565b6132f58185613e9f565b9350613305818560208601614086565b61330e81614286565b840191505092915050565b600061332482613e94565b61332e8185613ebb565b935061333e818560208601614086565b61334781614286565b840191505092915050565b600061335d82613e94565b6133678185613ecc565b9350613377818560208601614086565b80840191505092915050565b6000613390601883613ebb565b915061339b82614297565b602082019050919050565b60006133b3602083613ebb565b91506133be826142c0565b602082019050919050565b60006133d6601f83613ebb565b91506133e1826142e9565b602082019050919050565b60006133f9603283613ebb565b915061340482614312565b604082019050919050565b600061341c602583613ebb565b915061342782614361565b604082019050919050565b600061343f601c83613ebb565b915061344a826143b0565b602082019050919050565b6000613462600283613ecc565b915061346d826143d9565b600282019050919050565b6000613485602483613ebb565b915061349082614402565b604082019050919050565b60006134a8601983613ebb565b91506134b382614451565b602082019050919050565b60006134cb602283613ebb565b91506134d68261447a565b604082019050919050565b60006134ee602c83613ebb565b91506134f9826144c9565b604082019050919050565b6000613511603883613ebb565b915061351c82614518565b604082019050919050565b6000613534602a83613ebb565b915061353f82614567565b604082019050919050565b6000613557602983613ebb565b9150613562826145b6565b604082019050919050565b600061357a602e83613ebb565b915061358582614605565b604082019050919050565b600061359d602383613ebb565b91506135a882614654565b604082019050919050565b60006135c0602283613ebb565b91506135cb826146a3565b604082019050919050565b60006135e3602083613ebb565b91506135ee826146f2565b602082019050919050565b6000613606603183613ebb565b91506136118261471b565b604082019050919050565b6000613629602c83613ebb565b91506136348261476a565b604082019050919050565b600061364c601183613ebb565b9150613657826147b9565b602082019050919050565b600061366f602f83613ebb565b915061367a826147e2565b604082019050919050565b6000613692602183613ebb565b915061369d82614831565b604082019050919050565b60006136b5601783613ebb565b91506136c082614880565b602082019050919050565b60006136d8603183613ebb565b91506136e3826148a9565b604082019050919050565b60006136fb601783613ecc565b9150613706826148f8565b601782019050919050565b600061371e601f83613ebb565b915061372982614921565b602082019050919050565b6000613741601183613ecc565b915061374c8261494a565b601182019050919050565b6000613764602f83613ebb565b915061376f82614973565b604082019050919050565b61378381614060565b82525050565b6137928161406a565b82525050565b60006137a58284866132bb565b91508190509392505050565b60006137bd8285613352565b91506137c98284613352565b91508190509392505050565b60006137e082613455565b91506137ec82856132a4565b6020820191506137fc82846132a4565b6020820191508190509392505050565b6000613817826136ee565b91506138238285613352565b915061382e82613734565b915061383a8284613352565b91508190509392505050565b600060208201905061385b6000830184613277565b92915050565b60006080820190506138766000830187613277565b6138836020830186613277565b613890604083018561377a565b81810360608301526138a281846132e0565b905095945050505050565b60006020820190506138c26000830184613286565b92915050565b60006020820190506138dd6000830184613295565b92915050565b600060a0820190506138f86000830188613295565b6139056020830187613295565b6139126040830186613295565b61391f606083018561377a565b61392c6080830184613277565b9695505050505050565b60006101208201905061394c600083018c613295565b613959602083018b613295565b613966604083018a61377a565b6139736060830189613295565b6139806080830188613295565b61398d60a083018761377a565b61399a60c0830186613295565b6139a760e0830185613295565b6139b5610100830184613295565b9a9950505050505050505050565b60006080820190506139d86000830187613295565b6139e56020830186613789565b6139f26040830185613295565b6139ff6060830184613295565b95945050505050565b60006020820190508181036000830152613a228184613319565b905092915050565b60006020820190508181036000830152613a4381613383565b9050919050565b60006020820190508181036000830152613a63816133a6565b9050919050565b60006020820190508181036000830152613a83816133c9565b9050919050565b60006020820190508181036000830152613aa3816133ec565b9050919050565b60006020820190508181036000830152613ac38161340f565b9050919050565b60006020820190508181036000830152613ae381613432565b9050919050565b60006020820190508181036000830152613b0381613478565b9050919050565b60006020820190508181036000830152613b238161349b565b9050919050565b60006020820190508181036000830152613b43816134be565b9050919050565b60006020820190508181036000830152613b63816134e1565b9050919050565b60006020820190508181036000830152613b8381613504565b9050919050565b60006020820190508181036000830152613ba381613527565b9050919050565b60006020820190508181036000830152613bc38161354a565b9050919050565b60006020820190508181036000830152613be38161356d565b9050919050565b60006020820190508181036000830152613c0381613590565b9050919050565b60006020820190508181036000830152613c23816135b3565b9050919050565b60006020820190508181036000830152613c43816135d6565b9050919050565b60006020820190508181036000830152613c63816135f9565b9050919050565b60006020820190508181036000830152613c838161361c565b9050919050565b60006020820190508181036000830152613ca38161363f565b9050919050565b60006020820190508181036000830152613cc381613662565b9050919050565b60006020820190508181036000830152613ce381613685565b9050919050565b60006020820190508181036000830152613d03816136a8565b9050919050565b60006020820190508181036000830152613d23816136cb565b9050919050565b60006020820190508181036000830152613d4381613711565b9050919050565b60006020820190508181036000830152613d6381613757565b9050919050565b6000602082019050613d7f600083018461377a565b92915050565b60008083356001602003843603038112613d9e57600080fd5b80840192508235915067ffffffffffffffff821115613dbc57600080fd5b602083019250600182023603831315613dd457600080fd5b509250929050565b60008083356001602003843603038112613df557600080fd5b80840192508235915067ffffffffffffffff821115613e1357600080fd5b602083019250600182023603831315613e2b57600080fd5b509250929050565b6000613e3d613e4e565b9050613e498282614115565b919050565b6000604051905090565b600067ffffffffffffffff821115613e7357613e72614257565b5b613e7c82614286565b9050602081019050919050565b600081519050919050565b600081519050919050565b600082825260208201905092915050565b600081905092915050565b600082825260208201905092915050565b600081905092915050565b6000613ee282614060565b9150613eed83614060565b9250827fffffffffffffffffffffffffffffffffffffffffffffffffffffffffffffffff03821115613f2257613f216141ca565b5b828201905092915050565b6000613f3882614060565b9150613f4383614060565b925082613f5357613f526141f9565b5b828204905092915050565b6000613f6982614060565b9150613f7483614060565b9250817fffffffffffffffffffffffffffffffffffffffffffffffffffffffffffffffff0483118215151615613fad57613fac6141ca565b5b828202905092915050565b6000613fc382614060565b9150613fce83614060565b925082821015613fe157613fe06141ca565b5b828203905092915050565b6000613ff782614040565b9050919050565b60008115159050919050565b6000819050919050565b60007fffffffff0000000000000000000000000000000000000000000000000000000082169050919050565b600073ffffffffffffffffffffffffffffffffffffffff82169050919050565b6000819050919050565b600060ff82169050919050565b82818337600083830152505050565b60005b838110156140a4578082015181840152602081019050614089565b838111156140b3576000848401525b50505050565b60006140c482614060565b915060008214156140d8576140d76141ca565b5b600182039050919050565b600060028204905060018216806140fb57607f821691505b6020821081141561410f5761410e614228565b5b50919050565b61411e82614286565b810181811067ffffffffffffffff8211171561413d5761413c614257565b5b80604052505050565b600061415182614060565b91507fffffffffffffffffffffffffffffffffffffffffffffffffffffffffffffffff821415614184576141836141ca565b5b600182019050919050565b6000819050919050565b60006141a482614060565b91506141af83614060565b9250826141bf576141be6141f9565b5b828206905092915050565b7f4e487b7100000000000000000000000000000000000000000000000000000000600052601160045260246000fd5b7f4e487b7100000000000000000000000000000000000000000000000000000000600052601260045260246000fd5b7f4e487b7100000000000000000000000000000000000000000000000000000000600052602260045260246000fd5b7f4e487b7100000000000000000000000000000000000000000000000000000000600052604160045260246000fd5b6000601f19601f8301169050919050565b7f45434453413a20696e76616c6964207369676e61747572650000000000000000600082015250565b7f537472696e67733a20686578206c656e67746820696e73756666696369656e74600082015250565b7f45434453413a20696e76616c6964207369676e6174757265206c656e67746800600082015250565b7f4552433732313a207472616e7366657220746f206e6f6e20455243373231526560008201527f63656976657220696d706c656d656e7465720000000000000000000000000000602082015250565b7f4552433732313a207472616e736665722066726f6d20696e636f72726563742060008201527f6f776e6572000000000000000000000000000000000000000000000000000000602082015250565b7f4552433732313a20746f6b656e20616c7265616479206d696e74656400000000600082015250565b7f1901000000000000000000000000000000000000000000000000000000000000600082015250565b7f4552433732313a207472616e7366657220746f20746865207a65726f2061646460008201527f7265737300000000000000000000000000000000000000000000000000000000602082015250565b7f4552433732313a20617070726f766520746f2063616c6c657200000000000000600082015250565b7f45434453413a20696e76616c6964207369676e6174757265202773272076616c60008201527f7565000000000000000000000000000000000000000000000000000000000000602082015250565b7f4552433732313a206f70657261746f7220717565727920666f72206e6f6e657860008201527f697374656e7420746f6b656e0000000000000000000000000000000000000000602082015250565b7f4552433732313a20617070726f76652063616c6c6572206973206e6f74206f7760008201527f6e6572206e6f7220617070726f76656420666f7220616c6c0000000000000000602082015250565b7f4552433732313a2062616c616e636520717565727920666f7220746865207a6560008201527f726f206164647265737300000000000000000000000000000000000000000000602082015250565b7f4552433732313a206f776e657220717565727920666f72206e6f6e657869737460008201527f656e7420746f6b656e0000000000000000000000000000000000000000000000602082015250565b7f45524337323155524953746f726167653a2055524920736574206f66206e6f6e60008201527f6578697374656e7420746f6b656e000000000000000000000000000000000000602082015250565b7f596f752063616e206e6f7420707572636861736520796f7572206f776e20746f60008201527f6b656e0000000000000000000000000000000000000000000000000000000000602082015250565b7f45434453413a20696e76616c6964207369676e6174757265202776272076616c60008201527f7565000000000000000000000000000000000000000000000000000000000000602082015250565b7f4552433732313a206d696e7420746f20746865207a65726f2061646472657373600082015250565b7f45524337323155524953746f726167653a2055524920717565727920666f722060008201527f6e6f6e6578697374656e7420746f6b656e000000000000000000000000000000602082015250565b7f4552433732313a20617070726f76656420717565727920666f72206e6f6e657860008201527f697374656e7420746f6b656e0000000000000000000000000000000000000000602082015250565b7f496e76616c6964205369676e6174757265000000000000000000000000000000600082015250565b7f4552433732314d657461646174613a2055524920717565727920666f72206e6f60008201527f6e6578697374656e7420746f6b656e0000000000000000000000000000000000602082015250565b7f4552433732313a20617070726f76616c20746f2063757272656e74206f776e6560008201527f7200000000000000000000000000000000000000000000000000000000000000602082015250565b7f456e7465722074686520636f7272656374207072696365000000000000000000600082015250565b7f4552433732313a207472616e736665722063616c6c6572206973206e6f74206f60008201527f776e6572206e6f7220617070726f766564000000000000000000000000000000602082015250565b7f416363657373436f6e74726f6c3a206163636f756e7420000000000000000000600082015250565b7f5265656e7472616e637947756172643a207265656e7472616e742063616c6c00600082015250565b7f206973206d697373696e6720726f6c6520000000000000000000000000000000600082015250565b7f416363657373436f6e74726f6c3a2063616e206f6e6c792072656e6f756e636560008201527f20726f6c657320666f722073656c660000000000000000000000000000000000602082015250565b6149cb81613fec565b81146149d657600080fd5b50565b6149e281613ffe565b81146149ed57600080fd5b50565b6149f98161400a565b8114614a0457600080fd5b50565b614a1081614014565b8114614a1b57600080fd5b50565b614a2781614060565b8114614a3257600080fd5b5056fea264697066735822122073354b0f025ab165899073f679842d30d78c5ca26e0a219267ea48c95493ec8764736f6c63430008040033",
  "linkReferences": {},
  "deployedLinkReferences": {}
}